:020000040800F2
:1000000048DF002069010008011B000851190008A1
:10001000FD1A00087B0600086D270008000000009C
:10002000000000000000000000000000092100089E
:100030000B0B0008000000008D1D0008B92200080D
:100040007F0100087F0100087F0100087F01000890
:100050007F0100087F0100087F0100087F01000880
:100060007F0100087F0100087F0100087F01000870
:100070007F0100087F0100087F0100087F01000860
:100080007F0100087F0100087F0100087F01000850
:100090007F0100087F0100087F0100087F01000840
:1000A0007F0100087F0100087F0100087F01000830
:1000B000992300087F0100087F0100087F010008E4
:1000C0007F0100087F0100087F0100087F01000810
:1000D0007F0100087F0100087F0100087F01000800
:1000E0007F0100087F0100087F0100080000000078
:1000F0000000000000000000000000000000000000
:1001000000000000000000007F0100087F010008DF
:100110007F0100087F0100087F0100087F010008BF
:100120007F0100087F0100087F0100087F010008AF
:100130007F010008550D00087F0100087F010008BD
:100140007F0100087F0100087F0100087F0100088F
:10015000DFF80CD000F032FA00480047A970000820
:1001600048DF00207047000005480047FEE7FEE733
:10017000FEE7FEE7FEE7FEE7FEE7FEE7FEE7FEE757
:100180005101000840EA01039B0703D009E008C9B8
:10019000121F08C0042AFAD203E011F8013B00F84C
:1001A000013B521EF9D27047D2B201E000F8012B98
:1001B000491EFBD270470022F6E710B504460846F8
:1001C000114602462046FFF7EFFF204610BD30B52E
:1001D0000EE003460A4601E05B1C521C1C781578B1
:1001E000AC4201D1002CF7D115F0FF0F04D0401C18
:1001F0000278002AEDD1002030BDCAB201789142C8
:1002000003D009B1401CF9E70020704701460020E7
:1002100000E0401C0A5C002AFBD1704710B50022A8
:1002200000E0521C835C8C5CA34201D1002BF8D10E
:10023000D8B2E1B2401A10BD30B5044600200346E2
:1002400000E05B1C934203D2E05CCD5C401BF8D025
:1002500030BD034611F8012B00F8012B002AF9D11B
:100260001846704730B505460020034600E05B1C89
:10027000934205D2EC5CC85C201A01D1002CF6D167
:1002800030BD2DE9F0470F469146804604460026D2
:1002900014F8015B2DB100F0DDF80068405DC00787
:1002A000F6D12B2D02D02D2D18D0641E4A4639468A
:1002B000204600F0D3F827B13968A14201D1C7F830
:1002C000008071054FF002040BD54042002803DD89
:1002D00002F05EFA0460A007BDE8F08746F480668D
:1002E000E4E70028F8DA02F053FA04606FF0004007
:1002F000F2E72DE9FE4F81EA030421F0004504F006
:10030000004423F000414FF0000A009450EA050336
:1003100002D052EA010304D10020014603B0BDE837
:10032000F08FC1F30A53C5F30A542344A3F2F33305
:100330000193A0FB02B3C5F3130545F4801CC1F380
:10034000130141F480180CFB023300FB083E810AC4
:10035000930A41EA8C5143EA8853A1FB03474FEAD1
:100360009C2505FB03734FEA982601FB06373D05E4
:10037000260545EA1435BBEB06016EEB0503850E39
:10038000920E45EA8C1542EA8812A5FB0206261E4B
:1003900067EB00070C0D44EA0334A61947EB135032
:1003A000C1F313044FF000031946E5FB02014FEAC5
:1003B000033545EA1455019B4FEA0432009CA3F132
:1003C0000C03CDE900A445EA060502932B4600F094
:1003D000A0F8A3E70EB5C10F80EAE0700844CA0791
:1003E000002140F233438DE80E000A460B4600F030
:1003F00090F803B000BD70B5C1F30A5201F000459A
:100400000024C1F3130140F2FF3341F480119A42FA
:1004100001DA002070BD40F233439A42A2F2334227
:1004200003DC524200F006F800E090402C43F1D08B
:10043000404270BD202A04DB203A21FA02F000215C
:10044000704721FA02F3D040C2F1200291400843E4
:100450001946704700487047984601082DE9F05F3B
:100460008246044600780027641C8B461546B94630
:10047000302801D09DB113E014F8010B0127782832
:1004800003D0582801D045B10AE00DB1102D07D195
:100490000027102514F8010B02E0082500E00A25CA
:1004A0000026B0460EE005FB080005FB06F101271B
:1004B00001EB10461FFA80F8B6F5803F00D3B9462D
:1004C00014F8010B294600F09AF80028EBDABBF18A
:1004D000000F04D0641E07B95446CBF80040B9F1B0
:1004E000000F06D002F054F902210160C81EBDE8D9
:1004F000F09F48EA0640FAE710B5002B08DA401CE6
:1005000041F1000192185B411A4301D120F0010032
:1005100010BD2DE9FF4D934611B1B1FA81F202E011
:10052000B0FA80F22032924600F05AF8039A074659
:10053000884640EA0B0011435B46084304D1384625
:10054000414604B0BDE8F08D114653EA020016D0D2
:10055000CAF140025846FFF76DFF04460D464FF0C2
:10056000010658465246039900F03AF8084300D174
:100570000026344345EAE675274345EA08080E9805
:100580004FF00005A0EB0A014FEAD7200A314FEAED
:1005900047532A4640EA48504FEAD82402D5002063
:1005A0000146CEE7281844EB0151DDE90C4500195E
:1005B00004B06941BDE8F04D9EE70000064C074DD0
:1005C00006E0E06840F0010394E807009847103423
:1005D000AC42F6D3FFF7C0FD98470108B8470108C1
:1005E000202A04DB203A00FA02F1002070479140F3
:1005F000C2F1200320FA03F31943904070473A28D0
:1006000000D2303820F02002412A01D3A2F1370075
:100610004FF0FF32884200D202461046704770B554
:1006200001EB020410F8015B15F0070301D110F88B
:10063000013B2A1106D110F8012B03E010F8016BE1
:1006400001F8016B5B1EF9D12B0705D40023521E64
:100650000FD401F8013BFAE710F8013B02F1020266
:10066000A1EB030303E013F8015B01F8015B521EE9
:10067000F9D5A142D6D3002070BD00BFFEE700002F
:1006800070B5B4480078F0BB482000F03FFA01F0A4
:10069000C9F901F0BBFA01281CD101F055F9AE49A6
:1006A00002680A6040684860012410E001F0C8FA5E
:1006B000012809D101F048F9A74901EBC4010268FA
:1006C0000A604068486000E003E0601C04B2022C4D
:1006D000ECDB00E070BD0920A04908705420487090
:1006E000692088706D20C870652008713A204871B3
:1006F0000920C87254200873652048736D208873E0
:100700007020C87300E010E03A2008740920C87512
:100710002E200875C876092088770D20C8770A2012
:1007200081F8200001208B4908708B4800F04CF9BB
:1007300004468948083000F047F9054688480068B3
:1007400042F21071B0FBF1F0303084498871844876
:10075000006842F21071B0FBF1F201FB12004FF49D
:100760007A71B0FBF1F030307C49C8717C48006888
:1007700042F21071B0FBF1F201FB12004FF47A71FA
:10078000B0FBF1F201FB12006421B0FBF1F030305C
:10079000724908727248006842F21071B0FBF1F2BF
:1007A00001FB12004FF47A71B0FBF1F201FB120071
:1007B0006421B0FBF1F201FB12000A21B0FBF1F061
:1007C0003030664948726648006842F21071B0FBEA
:1007D000F1F201FB12004FF47A71B0FBF1F201FB70
:1007E00012006421B0FBF1F201FB12000A21B0FB00
:1007F000F1F201FB120030305849887242F2107059
:1008000094FBF0F03030487442F2107094FBF0F139
:1008100000FB11404FF47A7190FBF1F030304F49FA
:10082000887442F2107094FBF0F100FB11404FF419
:100830007A7190FBF1F201FB1200642190FBF1F060
:1008400030304649C87442F2107094FBF0F100FB5E
:1008500011404FF47A7190FBF1F201FB1200642118
:1008600090FBF1F201FB12000A2190FBF1F0303015
:100870003A49487542F2107094FBF0F100FB1140C8
:100880004FF47A7190FBF1F201FB1200642190FBAE
:10089000F1F201FB12000A2190FBF1F201FB1200C0
:1008A00030302E49887542F2107095FBF0F03030F0
:1008B000087642F2107095FBF0F100FB11504FF4F6
:1008C0007A7190FBF1F030302449487642F2107092
:1008D00095FBF0F100FB11504FF47A7190FBF1F2AF
:1008E00001FB1200642190FBF1F030301B49887647
:1008F00042F2107095FBF0F100FB11504FF47A7149
:1009000090FBF1F201FB1200642190FBF1F201FB7C
:1009100012000A2190FBF1F030301049087742F2C2
:10092000107095FBF0F100FB11504FF47A7190FBC1
:10093000F1F201FB1200642190FBF1F201FB1200C5
:100940000A2190FBF1F201FB120030300349487795
:1009500000BFBFE6CE040020151A0020F4190020C5
:10096000BC04002010B5002401F0ECFB002001F0D5
:10097000FFFE0C2000F0E4F8012001F0F9FE01F088
:10098000CDFB0A2000F0DCF80121054800F0CEFF85
:1009900000B10124282000F0D3F8204610BD00004B
:1009A0000014014070B5002472B6002507E0641001
:1009B000FFF7D8FF08B144F08004681CC5B2082DC9
:1009C000F5DB62B6204670BD2DE9F05F824600F08F
:1009D00043F818B94FF0FF30BDE8F09FCC2000F08D
:1009E00085F8442000F082F800F036F8552000F039
:1009F0007DF84FF0000807E01AF8080000F076F8DC
:100A000008F101000FFA80F8B8F1080FF4DB0A20B2
:100A100000F096F8BE2000F069F8FFF7C3FF8346A8
:100A2000FFF7C0FF8146C8464FEA08200FFA80F85A
:100A300048EA0B084046FFF7CDFC06460022054B6E
:100A4000FFF757FC0446FFF7D6FC0FFA80F8404644
:100A5000C2E700000000194010B5002401F072FB4D
:100A6000012001F085FE012000F06AF8002001F06D
:100A70007FFE4FF4FA7000F063F8012001F078FE79
:100A8000022000F05DF801F049FB08E0601CC4B2F0
:100A9000012000F055F8642C01DD002010BD01217B
:100AA000054800F043FF0028F0D14FF4CD7000F06E
:100AB00047F80120F2E700000014014010B5044699
:100AC00001F040FB002001F053FE0C2000F038F84C
:100AD00004F0010001F04CFE1E2000F031F801206E
:100AE00001F046FE052000F02BF810BD70B504465D
:100AF00072B6002505E02046FFF7E0FF6410681C91
:100B0000C5B2082DF7DB62B670BD70474FF0E0212B
:100B1000096921F004014FF0E0221161C21700EBD6
:100B20005272D210044B1A70194609784FF47A7237
:100B30005143024A11807047B8040020BA040020D3
:100B40000B49097841434FF0E02251611146096990
:100B500041F00101116100BF4FF0E021096911F47A
:100B6000803FF9D000214FF0E02211619161704780
:100B7000B80400200149486170470000009002401D
:100B800029B1064AD2690243044BDA6104E0034A00
:100B9000D2698243014BDA61704700000090024045
:100BA00030B10749896941F00201054A916105E0C8
:100BB0000349896921F00201014A916170470000EF
:100BC0000090024030B50C4613460021104D2860BD
:100BD00000BF18E000EB01124FF00045156044F231
:100BE000F0555560C1EB411505EB811504EB05157A
:100BF00095605D1E8D4204D900EB01151035D5605E
:100C000000E0D060491C9942E4D3024DE86030BD59
:100C1000000600200090024021B1426822F000420C
:100C2000426003E0426842F00042426070470000C8
:100C300030B10749896941F40051054A916105E0E5
:100C40000349896921F40051014A9161704700000C
:100C50000090024030B50C46134600210F4D28602D
:100C600000BF15E000EB01124FF480151560C1EBD9
:100C7000411505EB811504EB051595605D1E8D4250
:100C800004D900EB01151035D56000E0D060491C97
:100C90009942E7D3024D286130BD0000FC050020D9
:100CA0000090024010B50121880301F081F8002175
:100CB0004FF4804001F07CF810BD0021014600E0B7
:100CC000491E0029FCD170470348806940F4801018
:100CD00001498861704700000090024001480068A7
:100CE00080687047FC05002001460868C0F30D408D
:100CF0007047000000B500220F480068006810F03F
:100D0000004F16D10C480068006810F4004F10D155
:100D100009480068006810F4807F0AD0064800681F
:100D2000006810F4007F04D003480068FFF7DCFF80
:100D30000246104600BD00000006002000200449C5
:100D4000096811F0010F01D0012000E00020704778
:100D50000090024010B501E001F028F9FFF7CAFF4A
:100D60000028F9D14020FFF705FF4FF48030FFF74E
:100D700001FF10BD2DE9F04786B0044688464FF0CC
:100D800000090025AA46854F00268548056925F0FB
:100D90001C0501A801F03CF8029F8248874205D358
:100DA0008148874202D245F0080509E07E48874223
:100DB00005D37A48874202D245F00C0500E000BF17
:100DC000774805614FF400420021404600F088FA60
:100DD00018B9002006B0BDE8F0877448FFF76DFF32
:100DE0002068C0B300BF761C0121404600F026F900
:100DF00010F0040F02D16E488642F4D36C4886424C
:100E000001D10020E6E700264FF480520021404641
:100E100000F066FA08B90020DCE700BF761C01216B
:100E2000404600F00BF910F0200F02D160488642D6
:100E3000F4D35F48864201D10020CBE70026102181
:100E4000404600F0FBF8814619F0040F04D04FF43F
:100E50000060206202E00BE00020206219F0020F27
:100E600002D00020606116E04FF48040606112E023
:100E7000206AC0F3CF006169C1F34F0140EA01026B
:100E80000021404600F02CFA08B90020A2E76FF0DC
:100E90007F40FFF712FF4248056846480540D4E905
:100EA00001010843E1680843216908436169084377
:100EB000A1690843E1690843216A0843616A08435C
:100EC000A16A0843E16A0843216B0843616B084348
:100ED000054333480560D4E90E010843216C0843FB
:100EE000616C0843A16C0843E16C0843216D084321
:100EF000616D08432A494860A06D8860E06DC86054
:100F0000084685694FF641700540D4E9181040EA5B
:100F10000140A16E0843E16E0843216F0843616FF1
:100F2000084305431E488561D4E91E0108431C4956
:100F3000C8612148856921480540D4E9200108435A
:100F4000D4F888100843D4F88C100843D4F89010D3
:100F50000843D4F894100843D4F898100843D4F800
:100F60009C100843D4F8A01008430543124885613B
:100F7000D4E929010843D4F8AC100843D4F8B010E0
:100F80000843D4F8B41040EA8100D4F8B8100843FC
:100F900040F400000849086001201BE70087930324
:100FA00000800240002D3101C00E1602FFFF0F002D
:100FB000FFFF04000F8120FF00900240233FDEF876
:100FC00010B50B794C7943EA0422094B03441A64A7
:100FD000CB781B068C7843EA04434C7843EA04231D
:100FE0000C7843EA0402024B03445A6410BD00002B
:100FF0000080024030B10749096841F00401054A08
:10100000116005E00349096821F00401014A1160FB
:10101000704700000080024030B10749096841F084
:101020000801054A116005E00349096821F008013B
:10103000014A1160704700000080024010B503466D
:101040000C46002100221348016901F01C014FF4F5
:10105000784000EAC32001434FF4F86000EA8410AE
:10106000014321F0020141F001010A48016100BF82
:10107000521C0848016911F0010F02D00648824253
:10108000F6D30548824201D1002010BD01484069D5
:1010900080B2FAE700800240FFFF040010B5054867
:1010A000006830B100F022FD02480021016041607B
:1010B000816010BDC0C600201EB500210022009234
:1010C00001920292214A1268126812F0004F10D069
:1010D000002200921E4A526912F0800F04D0802232
:1010E0001B4B5A6100229A609DE81C0080E81C009E
:1010F0001EBD164A1268126812F4004F16D1134A28
:101100001268126812F4807F10D0104A12681268B8
:1011100012F4007F0AD00D4A12681268C2F30D4221
:10112000111F0A4A12689268019200E000210091A2
:10113000064A12680292054A1268D268034B1A6086
:101140009DE81C0080E81C0000BFD1E700060020DD
:10115000009002400348006840F001000149086027
:10116000704700000090024000B50120FFF754FFD7
:10117000FFF7AAFD0120FFF73DFF0120FFF758FD13
:101180000120FFF70DFD00BD00210160416081607D
:10119000C160016141618161C1610162416281623D
:1011A000C162016341638163C16340210164202105
:1011B000416400218164C164016541658165C16547
:1011C00001668021416600218166C1660167416731
:1011D0008167C1674FF08061C0F880104910C0F886
:1011E00084104910C0F88810C910C0F88C10002174
:1011F000C0F89010C0F89410C0F89810C0F89C1077
:10120000C0F8A0104FF00071C0F8A4100021C0F881
:10121000A8104FF40031C0F8AC104912C0F8B0105B
:101220000021C0F8B410C0F8B810704770B505467A
:1012300024480068006810F0004F1DD000F080F8CE
:10124000214801F023F8022220492148FFF702FD3E
:10125000042220492048FFF7B5FC002406E01E497F
:1012600001EB04100121FFF7D7FC641C042CF6DB12
:10127000FFF77AFF002070BDC5F30C001149096823
:10128000486010480068006840F040500D49096807
:1012900008600C480068006840F00040094909688F
:1012A00008600E48406910F0040F04D004200B4978
:1012B00048610020486003480068C0680149086030
:1012C0000120D8E7FC0500202200002004B5002002
:1012D000249D0020449D0020E49C002000900240BA
:1012E00030B503460C46154600210022124801691C
:1012F00001F01C014FF4784000EAC32001434FF491
:10130000F86000EA8410014341F0020141F001015C
:1013100009484561016100BF521C0748016911F08D
:10132000010F02D005488242F6D30448824201D11F
:10133000002030BD0120FCE700800240FFFF0400D8
:1013400000B5AFB0002000F029FA062000F028FE1A
:10135000FFF7A8FCFFF7FEFE00BFFFF7EFFC012838
:10136000FBD06846FFF710FF012000900020079097
:101370004FF400700A9000200B900E901190139083
:101380001490159020904FF0007021900011239040
:1013900000202590269004202890C0052990401216
:1013A0002A9080012B9040122C9040002E90012119
:1013B0006846FFF7DFFC01210248FFF7E1FB2FB091
:1013C00000BD0000400001002DE9F04104460D463B
:1013D0001646012C09D161230FA21349134802F0CC
:1013E000F7FD68B10020BDE8F081022C08D161232F
:1013F0000FA20D490D4802F0EBFD08B10020F2E705
:101400002A463146094803F039F907460649074894
:1014100000F0DAF80120E6E75265706F72744673E7
:101420002E747874000000003C0C0020340D002065
:101430005265706F54656D702E74787400000000F2
:1014400070B504460D46062204F111013C48FEF732
:10145000F3FE08B9002070BD607C39490870A07C9B
:101460004870E07C8870207DC870607D0871A07D28
:101470004871207E8871607EC871A07E0872E07E0F
:101480004872207F8872607FC8722E480068C8B991
:1014900072232DA22F49304802F09AFD08B1002096
:1014A000D9E72E4800F0CCF82649086008460068C5
:1014B000811F2B4B0622284802F0C8FE25492648EA
:1014C00000F082F827480068C8B972231EA221499B
:1014D000214802F07DFD08B10020BCE7224800F061
:1014E000AFF82049086008460068811F1C4B06229F
:1014F000194802F0ABFE1749174800F065F877234A
:1015000011A21449144802F063FD08B10020A2E7BB
:1015100014480068811F0A4B06220F4802F016FF8C
:1015200008480068811F064B9B1D06220A4802F0EE
:101530000DFF0849084800F047F801208BE700003C
:101540000407002074040020696E6465782E7478A6
:10155000740000003C0C0020340D002054040020D6
:1015600084110020780400206304002010B5772344
:1015700009A20C490C4802F02BFD08B1002010BD57
:101580000AA21B21084803F079F8044605490648D9
:1015900000F01AF80120F2E77465737432332E7488
:1015A000787400003C0C0020340D002074686973CE
:1015B00020697320612066696C6573797374656D49
:1015C000207465737421000070B505460C462846EA
:1015D00002F0CAFC204603F099FA70BD10B5002154
:1015E0000E4801F05BFB00B110BD0DA20D490E4885
:1015F00005F0EAFC00B1F7E700210C4801F04EFBD2
:1016000000B1F1E706A20A490A4805F0DDFC00B185
:10161000EAE700F0A1F900BFE6E7000014070020A8
:101620002F000000880900207C0C0020C809002041
:101630003C0C0020B00C002010B5FFF797FF10BD48
:101640002DE9F04105460026002400BF0E4A4FF464
:1016500000710E4802F089FF064629460A48FEF747
:10166000B6FD50B129460848FEF7B1FD07460648C9
:101670003E1A06EB4420BDE8F081641CB6F5007FFD
:10168000E4D00020F7E7000084110020340D002092
:1016900008B50420ADF8000003208DF802001820E2
:1016A0008DF803006946394800F07EF80620ADF851
:1016B000000003208DF8020018208DF80300694611
:1016C000334800F071F843F62010ADF80000032015
:1016D0008DF8020018208DF8030069462D4800F0AF
:1016E00063F801214FF0201000F0E8F80B20ADF86E
:1016F000000003208DF8020004208DF803006946E5
:10170000224800F051F84FF48060ADF8000003204B
:101710008DF8020004208DF8030069461D4800F092
:1017200043F80820ADF8000003208DF802000420E3
:101730008DF803006946164800F036F84FF4F8506B
:10174000ADF8000003208DF8020004208DF803009E
:101750006946114800F028F81020ADF8000000207C
:101760008DF8030069460A4800F01EF84FF48070B7
:10177000ADF8000003208DF8020018208DF803005A
:101780006946024800F010F808BD0000000801405A
:1017900000100140000C01400014014001490860A4
:1017A00070470000DC0020422DE9F0410246002590
:1017B0000026002000230024002791F803C00CF02D
:1017C0000F0591F803C01CF0100F03D091F802C070
:1017D0004CEA0505B1F800C01CF0FF0F31D01468C9
:1017E00000202BE04FF0010C0CFA00F3B1F800C020
:1017F0000CEA03069E4220D183004FF00F0C0CFA36
:1018000003F7BC4305FA03FC4CEA040491F803C057
:10181000BCF1280F06D14FF0010C0CFA00FCC2F805
:1018200014C00AE091F803C0BCF1480F05D14FF095
:10183000010C0CFA00FCC2F810C0401C0828D1D3DF
:101840001460B1F800C0BCF1FF0F34DD5468002013
:101850002EE000F1080C4FF0010808FA0CF3B1F883
:1018600000C00CEA03069E4221D183004FF00F0C0A
:101870000CFA03F7BC4305FA03FC4CEA040491F8A4
:1018800003C0BCF1280F05D100F1080C08FA0CF8D0
:10189000C2F8148091F803C0BCF1480F07D100F1E1
:1018A000080C4FF0010808FA0CF8C2F81080401C30
:1018B0000828CED35460BDE8F0810000F0B50A4698
:1018C0000023002400210025174E7168C0F3034552
:1018D00083B200F44016B6F5401F08D121F07061C4
:1018E000114E766826F070660F4F7E6012E000F4AD
:1018F0008016B6F5801F06D1032606FA05F4A1432B
:1019000041F0706106E0460D360103FA06F6B14378
:1019100041F0706122B1460D360103FA06F63143FB
:10192000014E7160F0BD0000000001400246002041
:1019300093680B4201D0012000E000207047416114
:10194000704701617047000000487047D0050020D3
:10195000FEF708FC00BFFEE710B50021064801F0C5
:101960009DF900B110BD05A20549064805F02CFB04
:1019700000B1F7E700BFF5E7CCCA00202F00000058
:1019800040CD002080CD00201FB50121084600F089
:101990001FFA40F60F640121880700F013FD4FF491
:1019A000A06000F00BF91C208DF80C0003208DF8CE
:1019B0000D0000208DF80E0001208DF80F0003A807
:1019C00000F0BAF80121880700F00BFD0022012188
:1019D000880700F026FD00214FF0804000F004FD54
:1019E000ADF800400020ADF80600ADF80200C820B8
:1019F000ADF804006946C00600F022FD0121880709
:101A000000F0EFFC01221146900700F00AFD0021D2
:101A10004FF0804000F011FD0121880700F0E4FC48
:101A20001FBD000008B50121202000F0E1F90120D0
:101A3000ADF800008DF8020014208DF8030069460F
:101A40000148FFF7B1FE08BD0014014000B587B0A2
:101A500005F0CEFB05F0C8FD0E4806904FF6FF706E
:101A600005900D4804900D4800F010FC0C4B0D4AF9
:101A700000218DE80E0004AB05AA06A90A4805F06E
:101A800089FF094805F0D4FF074806F01FF807B0A2
:101A900000BD0000C0A800FDC0A800142200002066
:101AA0009D36000889370008C406002010B504469A
:101AB000FFF7F4FA0B480068201AFA2805D3094802
:101AC00004600AF0BDFF00F0DBFD07480068201A43
:101AD00041F28831884203D30348046001F036FDA7
:101AE00010BD0000080000200C00002010B50248C6
:101AF00001F076FE10BD0000C406002000BFFEE726
:101B0000704708B500214FF0006000F075F84FF401
:101B1000A06000F053F83D208DF8000002208DF801
:101B2000010000208DF8020001208DF803006846B6
:101B300000F002F808BD000070B5002100230F225C
:101B4000C4784CB31A4C246804F4E064C4F5E0642F
:101B50004FEA1421C1F1040322FA01F2447804FA95
:101B600003F1847804EA020444EA01014FEA011116
:101B7000104C0678A155047804F01F054FF00104BD
:101B800004FA05F405784FEA65154FF0E02606EBF8
:101B90008505C5F8004109E0047804F01F0501241B
:101BA000AC40054D0678761145F8264070BD000022
:101BB0000CED00E000E400E080E100E002490143B8
:101BC000024A1160704700000000FA050CED00E0C9
:101BD00010B5002807DA0A07120E054B00F00F04B3
:101BE000241F1A5503E00A07120E024B1A5410BDA7
:101BF00018ED00E000E400E0024A0A400243024B14
:101C00001A60704780FFFF1F08ED00E010B500204C
:101C100004490860044908600449086000F010F8AD
:101C200010BD0000D8050020E0050020DC050020E4
:101C300010B5FEF797FE10BD10B5FEF70DFF10BDF5
:101C40002DE9F05F01254FF0000900240126A3468D
:101C50000020434908704348006878BBFFF7ECFF59
:101C600040B90020404908603E4908603F4908608B
:101C7000BDE8F09FF02000F083F800BFFFF7D8FF29
:101C80000746FFF7D5FF8046012F03D1B8F1010FBA
:101C900000D144E0474502D007F0FF0A22E0324875
:101CA000006885420BDA3248005D3040002801DDD3
:101CB000012000E0002000F0FF0A09E03FE02A4890
:101CC0000068854201D1012000E0002000F0FF0AF9
:101CD000BAF1000F06D1A946B9F1090F02DA23487B
:101CE000C0F80090BAF1010F05D12148005D3043E2
:101CF0001F49085504E01E48005DB0431C490855C3
:101D0000504600F037F86D1C7006060E2EB91849C3
:101D1000085D00F0B3FF641C0126082CAEDB00BF99
:101D2000412D0CDB0E48007848B90F48C0F80090F0
:101D3000006810B901200B4908604FF0010BBBF19E
:101D4000000F02D00A48007838B900200649086020
:101D500004490860054908608346584688E7000042
:101D6000E4050020E0050020D8050020DC05002067
:101D7000D005002010B504462046FEF79FFE10BD9A
:101D800010B504462046FEF7B1FE10BD70470000B6
:101D900029B1064A52690243044B5A6104E0034ADE
:101DA00052698243014B5A617047000000100240A3
:101DB00029B1064A926A0243044B9A6204E0034A3C
:101DC000926A8243014B9A62704700000010024001
:101DD00029B1064AD2690243044BDA6104E0034A9E
:101DE000D2698243014BDA61704700000010024063
:101DF00029B1064A92690243044B9A6104E0034AFE
:101E000092698243014B9A617047000000100240C2
:101E10002DE9F041002100220025002300260024A6
:101E200000278C46DFF86081D8F8048008F00C01A8
:101E300021B1042907D0082959D109E0DFF84C81E4
:101E4000C0F8008058E0DFF84881C0F8008053E017
:101E5000DFF83481D8F8048008F47012DFF82881A4
:101E6000D8F8048008F48035920C0D2A01D0921C19
:101E700000E0062235B9DFF81C8102FB08F8C0F843
:101E8000008033E0DFF80081D8F82C8008F4803639
:101E9000DFF8F480D8F82C8008F00F0808F101046E
:101EA00046B9DFF8EC80B8FBF4F808FB02F8C0F89C
:101EB00000801BE0DFF8D080D8F82C80C8F303182E
:101EC00008F10107DFF8C080D8F82C80C8F3032898
:101ED00008F1020CDFF8B880B8FBF7F808FB0CF843
:101EE000B8FBF4F808FB02F8C0F8008004E0DFF863
:101EF0009C80C0F8008000BF00BFDFF88C80D8F85D
:101F0000048008F0F0010909DFF88C8018F801302E
:101F1000D0F8008028FA03F8C0F80480DFF8688061
:101F2000D8F8048008F4E061090ADFF86C8018F83A
:101F30000130D0F8048028FA03F8C0F80880DFF8F0
:101F40004880D8F8048008F46051C90ADFF8488056
:101F500018F80130D0F8048028FA03F8C0F80C8093
:101F6000DFF82480D8F8048008F44041890BDFF8BA
:101F70002C8018F80130D0F80C80B8FBF3F8C0F8CA
:101F80001080BDE8F08100000010024000127A00CD
:101F900040787D0100093D00E5050020F5050020A1
:101FA0000149C87170470000001002400EB5114889
:101FB000FFF782F80F4A07CA8DE807000D4800684E
:101FC00040F2DC51884205D80A48026841680A4854
:101FD000FEF7D8F84FF000400649896808600748C6
:101FE000406910F0800F04D080200449486100202F
:101FF00088600EBDC0C60020E4C0002000900240F2
:1020000021B1028842F04002028004E002884FF6CB
:10201000BF731A400280704700B587B001210520C8
:10202000FFF7E6FE01210803FFF7E2FEE020ADF82E
:10203000180003208DF81A0018208DF81B0006A93F
:102040001948FFF7B1FB1020ADF8180003208DF8F8
:102050001A0010208DF81B0006A91348FFF7A4FBF7
:102060000020ADF804004FF48270ADF806000020A7
:10207000ADF80800ADF80A00ADF80C004FF40070A0
:10208000ADF80E000020ADF81000ADF812000720EA
:10209000ADF8140001A9054800F018F80121034823
:1020A000FFF7AEFF07B000BD00080140003001405F
:1020B0000246002013890B4201D0012000E00020DD
:1020C00070470146888970478181704710B50022AA
:1020D000028802F441520B884C8823438C882343A6
:1020E000CC8823430C8923434C8923438C89234385
:1020F000CC8923431A430280838B4FF2FF74234021
:1021000083830B8A038210BD70470000024909785F
:1021100001B900BF704700002800002008B5012168
:102120002020FFF765FE0120ADF800008DF80200C9
:1021300048208DF8030069460148FFF735FB08BDCC
:102140000014014008B501212020FFF751FE0120B5
:10215000ADF800008DF8020014208DF803006946E8
:102160000148FFF721FB08BD0014014010B500F045
:1021700001F810BD10B5002000213F4B1B6843F44F
:1021800080333D4C236000BF3C4A3B4B1B6803F44B
:102190000031401C00BF1300A2F10102FBD111B9B4
:1021A000B0F5A06FF0D1344B1B6813F4003F01D0A1
:1021B000012100E0002101295BD1314B1B6843F074
:1021C00010032F4C236023461B6823F00303236076
:1021D00023461B6843F002032360274B5B68264CB1
:1021E000636023465B68636023465B6843F48063F7
:1021F00063602346DB6A234C23401F4CE362234683
:10220000DB6A214C23431C4CE36223461B6843F0EA
:102210008063236000BF184B1B6813F0006FFAD077
:10222000154B5B6823F47C13134C636023465B6897
:1022300043F4E813636023461B6843F08073236014
:1022400000BF0D4B1B6813F0007FFAD00A4B5B6890
:1022500023F00303084C636023465B6843F00203EA
:10226000636000BF044B5B6803F00C03082BF9D1DB
:1022700001E000BFFEE710BD00100240A086010093
:102280000020024000F0FEFF4406010010B50446A5
:1022900020780849087060784870A0788870E078E5
:1022A000C870207908716079487121460020FEF7D6
:1022B00087FE10BDA006002010B500F00FFA10BD7B
:1022C00010B51448006840F0010012490860084643
:1022D0004068114908400F494860084600680F49A6
:1022E00008400C4908600846006820F48020086017
:1022F0000846406820F4FE0048600846006820F068
:10230000A05008604FF47F0088600020C862FFF78B
:102310002DFF10BD001002400000FFF0FFFFF6FE91
:1023200010B586B0FFF7CCFF01214804FFF750FD40
:1023300001214FF4E030FFF72BFD012140F27D2019
:10234000FFF756FDFFF7DDFBFFF7A2F9FEF7F8FFF9
:1023500001A8FFF75DFD64210198B0FBF1F4B4F131
:10236000807F00D311E024F07F40401E4FF0E02139
:1023700048610F214FF0FF30FFF72AFC00204FF09B
:10238000E02188610720086100BF0121881EFFF756
:102390001FFC06B010BD000010B50121880700F039
:1023A0002FF860B10121880700F018F80121880793
:1023B00000F017F8024800680A300149086010BDB3
:1023C0000000002021B1028842F08002028004E077
:1023D000028840F27F331A4002807047CA4302826B
:1023E0007047CA430282704721B1028842F001025D
:1023F000028004E0028840F2FE331A4002807047F7
:1024000030B50246002000230024158A05EA0103A6
:10241000958905EA010413B10CB1012000E0002008
:1024200030BD10B51AB183890B43838104E08389E1
:10243000CC43A4B22340838110BD81847047000047
:10244000028802F08F020280CA884B881A430388F0
:102450001A4302808A8882850A880285054A90424A
:1024600002D0054A904201D10A7A02860122828274
:1024700070470000002C01400034014010B50446B4
:102480000F480068201A41F28831884217D30C485F
:1024900004600C48007830B10C220BA10120FEF73B
:1024A00093FF07F03DFC0B48007840B90120094933
:1024B00008700C2208A1FEF787FF0BF033F810BD5F
:1024C00034000020280000205443505F526574728D
:1024D000790D0A00290000205544505F526574723E
:1024E000790D0A0070B505460C461646207A40F074
:1024F000080020724FF4FA70C4F88C00C4F8900001
:102500000220C4F894000549204609F0BDFE0449A4
:10251000204608F099F8002070BD0000252500082D
:10252000B72700082DE9F04107460E4614461D4620
:102530001DB914B1204605F0A6FD05B90CB1002D5A
:1025400002DA304607F09CFDBDE8F08110B586B098
:1025500004464FF47A70B4FBF0F042490860084634
:1025600000684149884244D140480088401C3F49A6
:1025700008800A203E4908703C480088642190FB8E
:10258000F1F030303A49487038480088642190FBB7
:10259000F1F201FB12000A2190FBF1F030303449D6
:1025A000887032480088642190FBF1F201FB120030
:1025B0000A2190FBF1F201FB120030302C49C87067
:1025C0002A480088642190FBF1F201FB12000A21E5
:1025D00090FBF1F201FB12003030254908710A200E
:1025E000487100201F490860062221490220FEF799
:1025F000EBFE20480068201AB0F5FA6F2FD31D4873
:102600000460FEF73DF81C48D0F806100191807A6E
:102610008DF808001848D0F81110CDF80910B0F85E
:102620001500ADF80D0014488169CDF80F10808BAE
:10263000ADF8130000208DF8150021210E48FEF79B
:10264000FFFE0E480088401C0C49088008460088A0
:10265000962804DB0020088001A805F08DF806B05C
:1026600010BD0000BC04002080510100C404002003
:10267000C8040020C0040020F4190020C604002073
:1026800010B510480078D8B10F480078401C0E49AA
:10269000087008460078552812DD00230B48028890
:1026A0000B490C4800680AF029FE0B4801680948EC
:1026B00000680AF0B9FC002002490870024908705D
:1026C00010BD00009C0400209D040020AC040020EC
:1026D000A8040020A4040020A004002070470000EB
:1026E00038B50546194800901948007808B31948CC
:1026F0000078F0B118480068281AB0F5FA7F24D3A2
:102700001548056000222021104605F084FA044691
:1027100084B1202211496068FDF734FD41F69073C1
:102720000F4A21460F4800680BF0ACF8204605F030
:10273000AAFC0AE00C480078401C0B4908700846C7
:102740000078322801D10020087038BDC0A800A34D
:10275000290000203800002040040020F419002047
:1027600020DB0008480400203A00002000BFFEE7FC
:1027700010B5044624B101210448FFF7E2F803E054
:1027800001210248FFF7DBF810BD000000140140F2
:1027900000487047C006002002E008C8121F08C1A8
:1027A000002AFAD170477047002001E001C1121FD2
:1027B000002AFBD170477047F0B504460D46002053
:1027C000002123E0675C00261AE0C0F38012FB09B9
:1027D00092EA030C08D080F004004FEA406C4FEA04
:1027E0001C6040F0010003E04FEA406C4FEA1C60BF
:1027F00006F1010C0CF0FF064FEA476C4FEA1C672C
:10280000082EE2DB01F1010C0CF0FF01A942D9DB3B
:10281000F0BDF0B587B006460D462A4601A9304600
:1028200002F0C8F8012201A9304601F07DF818B184
:102830004FF0FF3007B0F0BD01A9304602F084F838
:102840000746012201A9304601F06EF810B14FF0A1
:10285000FF30EFE73A462946304601F014F80446C7
:1028600003E03046039901F020FF601C0446024655
:1028700001A9304601F02AF80028F2D00020D9E75B
:1028800070B506460C4615460B222146284604F034
:1028900050FC0020E07220736073E0812082208A67
:1028A00060820020A082E089E082208A20830020CC
:1028B0006083E06170BD2DE9F04104460E46154687
:1028C00029680222206805F061F90746287907EB9C
:1028D00040112022304604F02CFC3946206805F0D7
:1028E00091F9BDE8F081F0B589B006460F4614466F
:1028F00000252AE006EB4511202201A8FDF742FC45
:102900009DF80F0000F00F000F281CD00B22394655
:1029100001A807F095F8B0B904B1257114B19DF87C
:102920000F006071BDF81E00BDF8181010EB0140DB
:1029300002D1012009B0F0BDBDF81E00BDF818108D
:1029400000EB0140F6E7681CC5B2102DD2DB002079
:10295000F0E770B588B006460D46002419E006EB96
:10296000441120226846FDF70DFC9DF80B0000F095
:102970000F000F280BD09DF8000018B19DF8000043
:10298000E52804D105B12C71012008B070BD601C90
:10299000C4B2102CE3DB0020F7E72DE9F041064636
:1029A0000F4614461D4615B1012D0CD106E02246F6
:1029B00039463046FFF797FFBDE8F08121463046A3
:1029C000FFF7C7FFF8E70020F6E72DE9FF5F0446B1
:1029D0008A4617461D464FF00008002629E051465A
:1029E000204601F086FE00EB060B012259462068C6
:1029F00005F0CCF880462A46394640460E9BFFF744
:102A0000CCFF5FEA00090ED02DB15146204601F0FF
:102A100070FE304428604146206805F0F3F84846CF
:102A200004B0BDE8F09F4146206805F0EBF8701C4B
:102A3000C6B2A079B042D2DC0020F1E72DE9F04720
:102A400088B080460D4614461E46DDF840904FF093
:102A5000000A0594049400208DF808000690039065
:102A6000012C08D84B4632462946404600F01BF858
:102A700008B0BDE8F0870BE0CDF8009033462A4659
:102A800040460499FFF7A1FF070001D03846EFE761
:102A900052460AF1010A02A9404600F017FF002839
:102AA000EAD00020E4E72DE9F047044688461646C0
:102AB0009946002794F83C00012806D094F83C0081
:102AC000022802D00020BDE8F087E56A1BE0012261
:102AD0002946206805F05AF807464B4632464146DB
:102AE0003846FFF75AFF5FEA000A07D006B13560A3
:102AF0003946206805F086F85046E4E739462068F4
:102B000005F080F86D1CA089C11700EBD161E26A65
:102B100002EB6111A942DAD83946206805F072F853
:102B20000020D0E7FEB504460E4600270B2168467C
:102B300004F0F6FA0B21304604F0F2FA254620782C
:102B40002F2800D16D1C06E00B223146684604F0A8
:102B5000F0FA781CC7B26946284601F0BBFC0500B4
:102B6000F2D10FB10120FEBD0020FCE72DE9F041BC
:102B700004460E46154629680122206805F006F82D
:102B80000746287907EB401120223046FDF7FAFA74
:102B90003946206805F036F8BDE8F0812DE9F041AE
:102BA00004460D46164629680222206804F0EEFF0E
:102BB0000746287907EB4010C6613946206805F0C2
:102BC00021F8BDE8F0812DE9F04105460C46164696
:102BD00021680222286804F0D9FF0746300C2179C9
:102BE00007EB41118882217907EB41114E83394669
:102BF000286805F007F8BDE8F0812DE9F0410446AA
:102C00000E46154629680222206804F0BFFF0746D9
:102C1000287907EB40112022304604F08AFA394621
:102C2000206804F0EFFF0020BDE8F08170B5044695
:102C30000D46256000202071204600F001F870BD8F
:102C400070B5054605220021286803F032F80646D3
:102C500000240CE04FF4DF7000EB041205F10800D3
:102C600000EB0411304600F0D1FD601CC4B2042C0E
:102C7000F0DB3146286803F0C1F970BD0146054814
:102C800000784840044A105C024A107010460078F0
:102C900070470000E4050020D004002070B5044611
:102CA0000D462946204602F0FCFC70BB002221465E
:102CB000201D03F0D8F8211D04F50970FFF7B6FFB9
:102CC00004F5097104F51B7004F072FF94F97002A9
:102CD000401C0ED10B2184F830120021C4F83412AC
:102CE0002168C4F8381204F5097104F51B7004F06A
:102CF0005FFF04F51B7104F51D7001F06AFE10B151
:102D00006FF0010070BD0020FCE74FF0FF30F9E7E5
:102D10002DE9FC4705468946164600BF1DB900BF90
:102D200000BFBDE8FC8700BF70892A280EDA4F4833
:102D3000408C401C81B24D484184C08B401C81B204
:102D40004A48C183304605F09EF9EAE7776807F103
:102D50000E042088B0F5807F08D12079062805D19F
:102D60006079042802D1608808280ED03F48008D81
:102D7000401C81B23D480185C08B401C81B23B485C
:102D8000C183304605F07FF9CBE73848408B401CC3
:102D900081B236484183D4F80E000190A0690090BA
:102DA000281D01D0686810B94FF0000808E00098AD
:102DB0006968884201D1012000E0002000F0FF088E
:102DC000B8F1000F01D0012000E00220C3B204F1ED
:102DD000080201A9284600F0FFFBE088B0F5807FDB
:102DE00003D0B0F5007F33D131E0B8F1000F2CD023
:102DF000022004F018F9E080D4F80E00A0616868A1
:102E0000C4F80E0000BF95F82600062801D000BFC8
:102E100000BF00BFA068C4F81200A089E082A068CB
:102E20003860A089B880D9F80000A060B9F8040023
:102E3000A081D9F80000C7F80600B9F8040078812D
:102E400031462846AA69904700E000BF07E006E047
:102E50000648808D401C81B20448818500BF00BFB8
:102E6000304605F010F900BF5BE70000009B002032
:102E70002DE9FC5F05460F464FF00A08C1460A26B9
:102E80000024A34600200190B246009000BF61E0FC
:102E900004EB84005C4A02EB8000817C0A2E02D1A4
:102EA00009B966B254E069B300BF012903D0022911
:102EB00001DA00BF00BF00BF5DB104EB8402524BDA
:102EC00003EB820228685268904202D160B2BDE8EA
:102ED000FC9F012928D104EB84004B4A52F82000C2
:102EE00088B104EB840002EB8000C27C009882422F
:102EF0002EDB4FFA84FA04EB8400434A02EB800095
:102F0000C07C009024E004EB84003F4A02EB800088
:102F1000C07C58451CDB4FFA84F804EB840002EBBC
:102F2000800090F813B013E0022911DB04EB840059
:102F3000354A02EB8000C27C0198824208DB4FFADE
:102F400084F904EB8400304A02EB8000C07C0190DD
:102F5000601CC4B20A2C9BDB17F0020F04D10A2EAE
:102F600005D117F0010F02D14FF0FF30AFE70A2E65
:102F700001DAF4B226E0B9F10A0F0BDA09F0FF0426
:102F800000BF04EB8400204951F8200008B100BFC5
:102F900000BF0EE0B8F10A0F02DA08F0FF0408E003
:102FA000BAF10A0F02DA0AF0FF0402E04FF0FF3034
:102FB0008DE700BF0A2C01DB00BF00BF00BF204629
:102FC00000F024F800BF0A2C01DB00BF00BF00BFE7
:102FD00000BF04EB84000C4901EB8000807C08B149
:102FE00000BF00BF00BF35B104EB8401064A02EB0D
:102FF000810128684860002004EB8401024A02EB4A
:103000008101C87460B262E71C9C002010B50446C0
:1030100004EB84000C4951F8200060B104EB8401FA
:10302000094A52F8210005F02EF8002004EB840133
:10303000054A42F82100002004EB8401024A02EB19
:103040008101887410BD00001C9C00202DE9FC4704
:1030500004460F461546A94600BF0CB900BF00BF85
:1030600000BF00BF0FB900BF00BF00BF00BF0DB958
:1030700000BF00BF00BF0E21384605F078F840B110
:103080004B484089401C4A4948816FF00100BDE827
:10309000FC872146286803F065F810B1DFF8148139
:1030A0007DE0286800F0F000E02815D101208DF8BF
:1030B000000000208DF801005E208DF80200687885
:1030C00000F07F008DF80300A8788DF80400E87800
:1030D0008DF80500E84661E02868A1680840D4E959
:1030E00001121140884210D0286880B2A0F57E41BC
:1030F000A9390AD014F10C0004D0E06810B104F131
:103100000C0902E06FF00300C1E72B48007800EBE8
:1031100080002A4901EB8000807C022818DB2649C8
:10312000097801EB8101254A02EB8101D9F8000001
:10313000496888420CD11E48C08D401C81B21C4891
:10314000C1851D4802783946204600F039F89EE7CF
:1031500000261BE006EB8600184901EB8000807C0E
:10316000022811DB06EB8601144A02EB8101D9F833
:1031700000004968884207D10F490E70F2B2394603
:10318000204600F01DF882E7701C46B20A2EE1DBF3
:103190003A464946204600F053F878E700BF4346D8
:1031A00004F127023946204600F0AEF96FE700002F
:1031B000009B002024DB0008920600201C9C0020BD
:1031C00070B505460E46144600BF04EB84001B494B
:1031D00001EB8000807C022801DA00BF00BF00BF45
:1031E00004EB8400154901EB8000807C022817D194
:1031F00004EB840001EB8000C07CE42810DB04EBCE
:1032000084000A4602EB8000011D284600F066F9A2
:1032100030B9032004EB8401084A02EB8101887471
:1032200004EB8400054901EB800000F10C0305F17B
:1032300027023146284600F067F970BD1C9C00202B
:103240002DE9F05F80460F46164608F127094FF03A
:10325000FF3A4146386802F085FF38B9386800F017
:10326000F000E02802D00FB1386818B96FF00D00F7
:10327000BDE8F09F01213846FFF7FAFD0446002C17
:1032800008DA2EB15748808C401C81B255488184A1
:103290002046EDE704EB8400534901EB8000807C7D
:1032A00030B9012004EB84014F4A02EB810188749C
:1032B00000BF04EB84004C4901EB8000807C0128B6
:1032C00008D004EB840001EB8000807C022801DA46
:1032D00000BF00BF00BF04EB8400434901EB800046
:1032E000807C012800D03EB93946404600F0F6F80F
:1032F00082460EB95046BBE700BF0EB900BF00BF03
:1033000000BF04EB8400384901EB8000807C022878
:103310000FDB36490C7004EB8400334901EB80006D
:1033200000F10C034A463146404600F0EDF8824673
:1033300056E004EB84002C4901EB8000807C0128DE
:103340004ED14FF0000B354610E000BF6889298947
:10335000884203D1286808B100BF00BF00BF287BA6
:10336000012802D04FF0010B02E02D68002DECD1B6
:1033700000BFBBF1000F10D029890022032004F008
:103380004AFC05466DB13146284604F0BDFD40B10A
:10339000284604F078FE002503E03546284604F070
:1033A000DAFFA5B104EB84000F4951F8200030B1D9
:1033B00004EB84010C4A52F8210004F064FE04EB93
:1033C0008400094941F820504FF0000A07E0054801
:1033D000808C401C81B2034881844FF0FF3A00BFCB
:1033E000504645E7009B00201C9C002092060020D0
:1033F0002DE9FF4F81B00746884691469A46DDF891
:1034000038B00020009000BF0FB900BF00BF00BF60
:1034100000222A21032004F0FEFB054655B92E4860
:10342000808C401C81B22C4881844FF0FF3005B065
:10343000BDE8F08F00BF68892A2801DA00BF00BF0D
:1034400000BF6E6806F10E04119803F0ECFDE080F9
:1034500000BF97F82600062801D000BF00BF00BFBC
:10346000DAF80000A060BAF80400A0810F980168A3
:10347000C4F812108088E082D9F800003060B9F8F2
:103480000400B080D8F80000C6F80600B8F80400C0
:103490007081DBF80000C4F80E0010980068A0618D
:1034A0004FF4807020800820608006202071042066
:1034B00060714FF4C160B08129463846BA699047BF
:1034C00000900548008B401C03490883284604F0FF
:1034D000DAFD00250098AAE7009B00207FB504468E
:1034E0000D4601230649201D8DE82300039304F1B6
:1034F0002703044A19462046FFF77AFF04B070BD3F
:103500002ADB000824DB00082DE9F04104460E46C2
:1035100017469846756800BF94F82600062801D023
:1035200000BF00BF00BFD8F800002860B8F8040052
:10353000A8803868C5F80600B88868810820A88186
:1035400031462046A2699047BDE8F08170B500245D
:103550003DE004EB84001F4901EB8000857C25B32E
:1035600004EB840001EB8000C07C401C04EB840170
:10357000184A02EB8101C87404EB8400114601EB88
:103580008000C07CF0280DDA04EB840001EB8000A1
:10359000807C01280AD104EB840001EB8000C07C10
:1035A000022803DB2046FFF731FD0EE004EB840028
:1035B000084901EB8000807C032806D1022004EB3F
:1035C0008401044A02EB81018874601CC4B20A2C95
:1035D000BFDB70BD1C9C00202DE9F04706460D4660
:1035E0001746984600BF96F82600062801D000BF6F
:1035F00000BF00BF5DB1286848B13146286802F0BD
:10360000B1FD20B9286800F0F000E02803D16FF088
:103610000D00BDE8F08741462846FFF729FC044627
:10362000002C01DA2046F4E7022004EB84011A4A58
:1036300002EB8101887404EB8400114601EB8000E9
:10364000866004EB840001EB80003968C160B988B2
:103650000182002004EB840102EB8101C87404EBB9
:103660008400114651F8200098B104EB840051F811
:103670002090002004EB840142F821003B4606F133
:10368000270249463046FFF73FFF484604F0FBFC5F
:1036900000BF0020BDE700001C9C00202DE9F04188
:1036A00004460E464FF00E0860890E280BDC3448A5
:1036B000008D401C81B232480185C08B401C81B214
:1036C0002F48C18356E06568AF89287810F0010F54
:1036D00016D02878012809D1687888B9A8785E289A
:1036E0000ED1607B40F01000607309E0062225498E
:1036F0002846FCF7A1FD18B9607B40F00800607314
:10370000082F03D0B7F5C16F24D116E096F82D002D
:1037100010F0200F00D12DE0C8F1000001B22046CA
:1037200004F025FD20B100BF00BF00BF00BF21E0B5
:103730003146204602F034FE18E096F82D0010F0D5
:10374000200F00D116E0224606F127013046FFF790
:10375000DFFA0BE00A48008D401C81B20848018561
:10376000C08B401C81B20648C18303E000BF00202B
:10377000BDE8F081204604F086FC0020F8E7000058
:10378000009B002024DB000870B5044600BF0CB984
:1037900000BF00BF00BF082003F05EFD054615B95D
:1037A0004FF0FF3070BD0AA02062E561732084F8FD
:1037B0002E0074212F200155074860610748A06141
:1037C00004F127002860204603F078FB0020E9E799
:1037D000776A775F697000004D300008956F0008C8
:1037E00070B50446204603F0AFFB064616B94FF00D
:1037F000FF3070BD214630462269904705461DB115
:10380000304604F040FC00262846F2E770B5044636
:103810000D461646A05D2870A01940786870A01962
:103820008178A970A019C178E970A0190079287170
:10383000A01940796871A0198179A971A019C1797D
:10384000E971A019082100F00FF8A860A0190C2157
:1038500000F00AF8E86070BD0246505C53185B78CF
:1038600000EB032080B270470246C81C105C0306C0
:10387000881C105C03EB0043481C105C03EB002029
:10388000535C184470472DE9F04186B007460C465A
:1038900015464FF00008002600208DF80000049027
:1038A00001900290039403E00298A84200D1019E87
:1038B000424608F101086946384600F007F808B9A1
:1038C000002EF1D0304606B0BDE8F08170B5064656
:1038D0000C4615466068A84201D8A06828B90020A7
:1038E0006060E068A060002020706068A84201D19C
:1038F000002070BD13E0207848B12078401E207071
:103900006068401C6060A068401CA06007E0214621
:10391000304600F06FF910B14FF0FF30E9E7606812
:10392000A842E8D10020E4E72DE9FC5F04460E46FA
:103930001746B9464FF0000A002001908346F06810
:10394000012802D838B2BDE8FC9F3146204600F07D
:10395000FBFF804645467BE06D1C206A401CA84268
:103960002BD8BBF1000F23D04146204600F098F938
:10397000009002222068009904F008F9824620464F
:1039800000F0B7F95346024641460090204600F049
:103990007BFAC6F810805146206804F033F9A7EB93
:1039A0000901606B401A6063A7EB090000B2CAE727
:1039B00002250BF1010000F0FF0B2946204600F024
:1039C0006FF9009001222068009904F0DFF8824628
:1039D00052462946204600F0BFF8B8B94146204675
:1039E00000F05EF9009002222068009904F0CEF801
:1039F00001902A4641462046019B00F045FA206886
:103A0000019904F0FFF8A9F10109A8465146206880
:103A100004F0F8F8B9F1000F1AD14146204600F041
:103A20003FF9009002222068009904F0AFF8824626
:103A3000204600F05EF9534602464146009020467B
:103A400000F022FAC6F810805146206804F0DAF837
:103A5000B9F1000F80D1706910B17069384470619C
:103A6000002070E770B586B006460C460025012C94
:103A700002D8002006B070BD00208DF80000049030
:103A800001900290039400BF2A466D1C694630469F
:103A9000FFF71CFF0028F7D0681EEBE72DE9F05F69
:103AA00005460F464FF0000B3946284600F0F8F85F
:103AB00081462889A9EB0000696A814202D9B9F1DF
:103AC000000F02D10020BDE8F09F0122494628687E
:103AD00004F05CF8064695F83C00012804D0022862
:103AE0002AD0032831D12BE007EB4700C0F348046C
:103AF00016F804A0A4F58070FF380DD1314628686F
:103B000004F080F8012209F10101286804F03EF870
:103B1000064696F8008002E0601C16F8008017F058
:103B2000010F04D108F00F000AEB002B03E04FEA6D
:103B3000081000EB2A1B08E0FCB236F814B004E0D1
:103B400007F07F0456F824B000BF00BF3146286854
:103B500004F058F85846B6E72DE9F84F07460D46E9
:103B600016460020009097F83C00012804D0022857
:103B700031D003283AD133E005EB4500C0F34804C7
:103B800016F804A0A4F58070FF3812D129463846F3
:103B900000F086F800F1010B01225946386803F065
:103BA000F5FF814699F800804946386804F02AF804
:103BB00002E0601C16F8008015F0010F05D108F036
:103BC0000F000AEB0020009004E04FEA081000EB21
:103BD0002A1000900AE0ECB236F81400009005E0DC
:103BE00005F07F0456F82400009000BF00BF009845
:103BF000BDE8F88F2DE9F05F05460C464FF0000A4E
:103C0000A06818B94FF0FF30BDE8F09F2846A168C2
:103C100000F046F8804601224146286803F0B6FFCE
:103C200083465A462846A168FFF796FF81464946D3
:103C3000284600F073F840B1A06820615946286812
:103C400003F0E0FF4FF0FF30DEE7C4F80890606853
:103C5000401C6060A068461E771C0AE03E465A463B
:103C600031462846FFF778FF07460AF101000FFAB0
:103C700080FA781EB04205D13946284600F010F887
:103C80004045EBD0BAF1010001D5002001E0AAF1D6
:103C9000010020705946286803F0B4FF0020B3E704
:103CA00010B502460B46148992F83C00012804D056
:103CB00002280CD003281AD111E003EB4300810A3B
:103CC000506A884201D8002010BD6018FCE7190A2C
:103CD000506A884201D80020F6E76018F4E7D90955
:103CE000506A884201D80020EEE76018ECE7002017
:103CF000EAE7014691F83C00012804D0022805D0EB
:103D0000032809D105E040F6FF7070474FF6FF70B9
:103D1000FBE76FF07040F8E70020F6E7024692F804
:103D20003C00012804D0022809D0032816D10DE058
:103D300040F6F870814201D2002070470EE04FF645
:103D4000F870814201D20020F7E707E021F07040CF
:103D5000044B984201D20020EFE700BF00BF0120D2
:103D6000EBE70000F8FFFF0F2DE9F05F07468846FC
:103D7000164641463846FFF793FF82463889AAEB3C
:103D80000000796A814202D9BAF1000F01D1BDE881
:103D9000F09F02225146386803F0F8FE054697F876
:103DA0003C00012804D0022859D0032869D15FE0E3
:103DB00008EB4800C0F34804A4F58070FF382ED10A
:103DC00018F0010F01D12E5507E0285D00F00F001B
:103DD000F02101EA06110844285541463846FFF70C
:103DE0005FFF00F1010B02225946386803F0CEFE56
:103DF000814618F0010F09D199F8000000F0F00099
:103E0000C6F30321084489F8000003E0C6F3071055
:103E100089F800004946386803F0F4FE1AE018F00B
:103E2000010F0BD12E55601C285C00F0F000C6F38A
:103E300003210844C1B2601C29540BE0285D00F046
:103E40000F00F02101EA061108442855C6F30710B7
:103E5000611C68542946386803F0D4FE11E008F06C
:103E6000FF0425F814602946386803F0CBFE08E00B
:103E700008F07F0445F824602946386803F0C2FE44
:103E800000BF00BF00BF82E72DE9F04781460F4623
:103E900016461D4699F83C00012804D0022857D048
:103EA00003285ED158E007EB4700C0F34804A4F5AF
:103EB0008070FF3830D117F0010F01D12E5507E087
:103EC000285D00F00F00F02101EA06110844285592
:103ED00039464846FFF7E4FE00F1010A0222514646
:103EE000D9F8000003F052FE804617F0010F09D107
:103EF00098F8000000F0F000C6F30321084488F8A9
:103F0000000003E0C6F3071088F800004146D9F826
:103F1000000003F077FE1AE017F0010F0BD12E55C9
:103F2000601C285C00F0F000C6F303210844C1B215
:103F3000601C29540BE0285D00F00F00F02101EA1D
:103F4000061108442855C6F30710611C685408E0A0
:103F5000FCB225F8146004E007F07F0445F8246003
:103F600000BF00BFBDE8F08710B5044600F020FD9B
:103F700098B1002060820121204600F08BFA28B120
:103F8000E06CE061608A20830020E08204F120027E
:103F90002146A06AFEF731FE0AE00121204600F02A
:103FA00079FA28B104F12001E26CA06AFEF7F6FD6F
:103FB0005021204603F0B4F800221146204600F0BC
:103FC0001EFB00220121204600F019FB002010BD3D
:103FD0002DE9F0418EB004460E4615461F4601A954
:103FE0002846FEF79FFD612F7DD0722F02D0772FDC
:103FF0007AD122E000230CAA2946304600F0DCFBEF
:10400000012817D10CAA21463046FEF7AFFD0CAAB5
:104010003146204600F045FA01220021204600F0FA
:10402000EEFA00220121204600F0E9FA00200EB04D
:10403000BDE8F0814FF0FF30F9E76B460CAA294646
:10404000304600F0B9FB012815D10CAA21463046B4
:10405000FEF78CFD0CAA3146204600F022FA012220
:104060000021204600F0CBFA01221146204600F044
:10407000C6FA0020DBE7009810B96FF00300D6E71E
:1040800000230CAA2946304600F015FC68B301AAAB
:1040900004A93046FEF7F4FB0CAA04A93046FEF74B
:1040A0000AFC2022214604A803F043F80CAA31465A
:1040B000204600F0F6F9A06A00F077FC8046414601
:1040C000A06A00F05FFC0090A06A04F12001009A51
:1040D000FEF779FD2046009900F014FD04F12C0153
:1040E0003046009A02E01BE0ADE016E000F062FC12
:1040F0003046FFF7FEFD8046024630460099FFF746
:1041000033FE01220021204600F079FA01221146F7
:10411000204600F074FA002089E76FF0020086E77D
:1041200000230CAA2946304600F046FB01283BD16B
:104130000CAA21463046FEF719FD0CAA314620464E
:1041400000F0AFF9A06B00BBA06A00F02EFC804627
:104150004146A06A00F016FC0090A06A04F120011C
:10416000009AFEF730FD2046009900F0CBFC304667
:10417000FFF7BFFD8046024630460099FFF7F4FD89
:104180000CAA3146204600F08CF92046E16C00F084
:1041900049FA01220021204600F031FA012211469D
:1041A000204600F02CFA4CE000230CAA29463046A9
:1041B00000F081FBF0B301AA04A93046FEF760FBD2
:1041C0000CAA04A93046FEF776FB2022214604A85B
:1041D00002F0AFFF0CAA3146204600F062F9A06A57
:1041E00000F0E3FB80464146A06A00F0CBFB009064
:1041F000A06A04F12001009AFEF7E5FC2046009930
:1042000000F080FC04F12C013046009A00F0D2FB53
:104210003046FFF76EFD8046024630460099FFF7B4
:10422000A3FD01220021204600F0E9F901221146F8
:10423000204600E002E000F0E2F902E06FF0020048
:10424000F5E60020F3E66FF00300F0E62DE9FF4FFE
:1042500085B004460E464FF00009079F3546002101
:10426000204600F017F918B9002009B0BDE8F08F1A
:10427000E06CB04200D8002707983044E16C8842D7
:1042800002D90FB1E06C871B5CE0A06A8079400224
:10429000B5FBF0F00490690AA06A8079B1FBF0F2F6
:1042A00000FB121BC5F308000390039810B9B7F583
:1042B000007F0DD2C5F30800C0F50070B84201D3ED
:1042C000384603E0C5F30800C0F50070804601E001
:1042D0004FF40078A06A04F12C01049AFFF7F6FA73
:1042E00008B10020C1E7606B0290A06A029900F05B
:1042F00000FA8246B8F5007F09D1089B03EB09025A
:104300000AEB0B01A36A186803F0FBFB16E00AEB4B
:104310000B01A26A1068012203F038FC0190089A90
:1043200002EB0901C5F30803019A9818424602F00E
:1043300000FFA16A0868019903F064FC4544C14488
:10434000A7EB0807002FA0D148468EE72DE9FF4FC5
:1043500085B004460F46DDF81CA000253E4600212E
:10436000204600F097F820B10121204600F092F895
:1043700018B9002009B0BDE8F08FE06CB84200D257
:10438000E76C39462046079A00F001F98146B9F1F9
:10439000000F08D04A4604F12C01A06AFFF7C4FAC6
:1043A00008B10020E6E767E0A06A80794002B6FB2A
:1043B000F0F00490710AA06A8079B1FBF0F200FB82
:1043C00012100390C6F308000290029810B9BAF5D3
:1043D000007F0ED2C6F30800C0F50070504501D32F
:1043E000504603E0C6F30800C0F500701FFA80F8DD
:1043F00001E04FF40078A06A04F12C01049AFFF761
:1044000065FA50B1E06C2844E06404F12001E26CEC
:10441000A06AFEF7C3FB2846ACE7606B0190A06A78
:10442000019900F066F98346B8F5007F09D1089B31
:104430005A19039B0BEB0301A36A186803F073FB83
:1044400016E0039A0BEB0201A26A1068022203F045
:104450009DFB0090C6F30803009A9918089A50191A
:10446000424602F066FEA16A0868009903F0CAFBA2
:1044700046444544AAEB080ABAF1000F94D1E06C17
:10448000C01BA84204D2E06CC11B691A0844E06456
:1044900028466FE7024692F8440001238B401840FB
:1044A000704710B58162C369C364002383641368D5
:1044B0000362147924231C54002380F82C30438B8E
:1044C000848A03EB044484630024C4630463846B20
:1044D000446310BD70B502460C460026002500233B
:1044E00003E02020E054581CC3B20B2BF9DB00235F
:1044F00010782E280AD12070681CC5B250782E285A
:1045000002D16070921C26E0521C24E01BE010785F
:104510002E2803D116B90126082313E046B10A2B31
:1045200010DC107800F088F8E054581CC3B209E0A1
:10453000072B07DC107800F07FF8E054581CC3B25A
:10454000681CC5B2521C107828B11078202802D0FF
:1045500010782F28DBD1002D05DD107808B9104622
:1045600070BD501CFCE70020FAE72DE9F04104463D
:104570000D46164633462A462046A16CFFF766FED6
:104580000746A06C3844A0643846BDE8F0812DE9A8
:10459000F04704460F46904607EB0800E16C88425E
:1045A00028D9206C30B9A16BA06AFFF75BFA0646E8
:1045B000266400E0266CA06A8088A16A897900FBE5
:1045C00001F5E06C2844401EB0FBF5F0301A68435A
:1045D000E16CA8EB01013944884208D207EB0800DE
:1045E00006FB15002844401EB0FBF5F904E04FF02F
:1045F000000901E04FF000094846BDE8F08710B51A
:104600003AB190F8443001248C40234380F8443080
:1046100007E090F8444001238B4024EA030380F82C
:10462000443010BD0246D06C884202D39164002011
:1046300070474FF0FF30FBE70146202912DB03DD16
:10464000302901DA2D290DD1392901DD412909DB74
:104650005A2903DD612901DA5F2903D17A2903DDB3
:104660007E2901D058207047612905DB7A2903DCB7
:10467000A1F12000C0B2F6E70846F4E72DE9F041C9
:1046800004460D46164633462A462046A16CFFF7DF
:104690005DFE0746A06C3844A0643846BDE8F08152
:1046A0000146D1E90102801A70472DE9F041044624
:1046B0000F46002516E03946204600F01AF800EBB8
:1046C000050802224146206803F060FA06464FF4CE
:1046D0000071304602F024FD3146206803F092FA62
:1046E000681C85B2A079A842E5DC0020BDE8F08115
:1046F000704770B502460B4692F83C00032805D17E
:104700001489907A556A05FB00410AE01589947A6C
:10471000566A06FB04559089C41700EB147405EB28
:104720002411981E947900FB041070BD30B5838865
:104730005B1E848903EB4413848893FBF4F2038AA1
:1047400023B1038A43620024846103E083694362E6
:1047500000240482C38923B1C38983620024446195
:1047600003E0436983620024C4810489837A456A33
:1047700003FB05431344846AE11A8379B1FBF3F325
:10478000036230BD40F6F572016A914205D2012103
:1047900080F83C100022C2610DE04FF6F572016A0C
:1047A000914205D2022180F83C100022C26102E051
:1047B000032180F83C1070472DE9FF4F85B00E466D
:1047C00017461C464FF0000AD34630782F280CD1EC
:1047D000059800F0B0F80546761C04B125603078E5
:1047E00038B9022009B0BDE8F08F0598056B04B117
:1047F000256033E0002300933B462A4602A9059832
:10480000FEF71CF95FEA000909D102A94046FFF74B
:1048100061FE10B10CB1002020600020E2E70AF137
:10482000010000F0FF0A787910F0100F09D04D4612
:10483000464604B12560BBF1000F0FD00020206078
:104840000CE04FF0010B02A94046FFF743FE20B1F8
:104850000CB1002020600020C4E7464602A9304683
:10486000FFF738FE5FEA0008C4D1BAF1000F00D1AB
:10487000B8E7787910F0100F02D1BBF1000F01D129
:104880000220AFE70120ADE790F83C1003290BD1DF
:104890000289837A816903FB0123C169891E8279B8
:1048A00001FB0231C16205E00289837A018A03FBC0
:1048B0000121C1627047F0B585B006460C46154629
:1048C0001F460020049004AB2A4621463046FFF7DD
:1048D00073FF10B1002005B0F0BD01A92046FEF71E
:1048E00021F908B90020F6E7012300932B4601A91E
:1048F0003046049AFEF7A2F808B10120EBE73046F3
:104900000499FDF786FF08B10020E4E70123009336
:104910002B4601A93046049AFEF790F808B1012011
:10492000D9E70020D7E710B504460021A26A206825
:1049300003F00BF910BD014691F83C00032801D1AA
:10494000C86970470120FCE770B505460C46A068B1
:1049500018B9E068A06000206060206980B909E0B3
:1049600021786068084460602178A0680844A060ED
:104970000020207021462846FFF73CF90028EFD0A0
:10498000206970BD70B506460C4609E0002221463C
:104990003046FFF783F805460DB9204670BD641C0C
:1049A000306AA042F2D80020F8E7014602207047A2
:1049B00000207047CA608A6000234B600B610B7057
:1049C0004B61704700B502461046FFF7B4FF106315
:1049D00000BD70B505460C46204600F01EF810B923
:1049E0004FF0FF3070BD2C602146284600F02EF8B5
:1049F000284600F091F810B96FF00100F2E7284660
:104A0000FFF794FE2846FFF7BDFE2846FFF73CFF60
:104A10002846FFF7D7FF0020E4E770B504460522DB
:104A20000021204603F0B2F805464FF4FF712846F6
:104A3000FEF712FFA0F52A41553901D0002070BDC4
:104A40002946204603F0DEF80120F8E770B5044659
:104A50000E4605220021304603F098F805460B214A
:104A60002846FEF7F9FEA080697BA1710E21284639
:104A7000FEF7F2FE2081297CA17211212846FEF763
:104A8000EBFEA08113212846FEF7E6FEE081162109
:104A90002846FEF7E1FE208220212846FEF7E4FEAC
:104AA000606124212846FEF7DFFEA0612C21284604
:104AB000FEF7DAFEE0612946304603F0A3F870BD48
:104AC00070B505460E4605B116B96FF00D0070BD04
:104AD0000B4C11E030466168FBF7A0FB58B9A068A9
:104AE0002860E0686860E068A8600020E860207CDA
:104AF00028740020EBE72468002CEBD1A01FE6E728
:104B0000C04501080A0C82824183704710B50446F3
:104B10002046FFF708FF10BD014601208A88B2F544
:104B2000007F00D000208A79012A00D100E0002215
:104B30008B79022B01D1012300E000231A438B79EA
:104B4000042B01D1012300E000231A438B79082BA9
:104B500001D1012300E000231A438B79102B01D1EE
:104B6000012300E000231A438B79202B01D101237C
:104B700000E000231A438B79402B01D1012300E090
:104B800000231A4300D100200A8902B900200A8AB2
:104B90006AB10A68126808320B6893F9043002EBB4
:104BA0000312D3680A8A93420ED200200CE00A68EE
:104BB000126808320B6893F9043002EB0312D368D1
:104BC0008A69934200D20020704701460120704755
:104BD0002DE9F04106460C4690463746207A40F0D3
:104BE000080020724FF41670C4F88C00C4F89000CE
:104BF0000220C4F8940000BF387E012801D000BF15
:104C000000BF00BF0121204607F0DDFC00F00AFBD9
:104C100005461DB94FF0FF30BDE8F081EC61294633
:104C2000204605F02DF80949204607F02DFB0849DC
:104C3000204605F009FD04220649204606F094FCB2
:104C40000549204607F0B6FC0020E5E7AB50000818
:104C5000214D000859500008FF51000870B5064664
:104C60000C46606928B92146304600F051F8002012
:104C700070BD6069FFF714FD0546002D05DC214677
:104C8000304600F045F80020F2E700BF00BF00BF4B
:104C900000BF0120ECE770B504460D46002229460E
:104CA000204600F001F870BD2DE9F04107460C46A2
:104CB00016460021384604F0E3FF0021384607F08D
:104CC000E3FA0021384605F0BFFC002211463846C1
:104CD00006F04AFC0021384607F06CFC14B120466F
:104CE00000F0BCFA2EB1384604F030FF0020BDE8D9
:104CF000F081384605F0C4F9054625B10422034980
:104D0000384606F031FC2846F1E70000595000080B
:104D100070B504460D4629462046FFF7BCFF70BD1E
:104D200070B504460E46254615B1284600F096FAA1
:104D300070BD00002DE9F74382B00446904600277D
:104D4000B946039800782F2822D103984078F8B903
:104D5000722326A228492948FFF73AF918B1002002
:104D600005B0BDE8F08300262448C06C6060606830
:104D7000A0600020E060207C207421A0039006B990
:104D800027461FBB03A9204600F040F8074623E052
:104D90003F210398FBF731FA054615B10020287032
:104DA0006D1C722314491548039AFFF711F908B1D5
:104DB0000020D5E70026002020601048C06C60600D
:104DC0006068A0600020E0600EB9274604E003A9F7
:104DD000204600F01BF80746002300934246394660
:104DE0002046039B00F044F8BAE70000696E646552
:104DF000782E74787400000040CD0020B4CD0020DF
:104E00002F696E6465782E68746D6C0070B5064607
:104E10000C460EA0206030462168FFF751FE054683
:104E200095B10DA0206030462168FFF749FE054688
:104E300055B10CA0206030462168FFF741FE0546C1
:104E400015B10020206070BD3046FCE72F343034AF
:104E50002E68746D6C0000002F3430342E68746D31
:104E6000000000002F3430342E7368746D6C000025
:104E70002DE9F04704460D4616469946DDF8208098
:104E80005DB365612868A06100BF6868002801DA29
:104E900000BF00BF00BF68686062002084F828007F
:104EA00000BF6069007C08B900BF00BF00BF606937
:104EB000007CC0B1BEB10DA1626AA06904F0D0FD52
:104EC00007464FB1391DA269881AA1690144A16141
:104ED000616A091A616200BF05E000206061A0619B
:104EE000606284F828000020BDE8F0870D0A0D0AF2
:104EF000000000002DE9F74F84B00C46049F00BF6E
:104F00000FB900BF00BF00BF00BF0CB900BF00BF9A
:104F100000BF606908B9A06920B16FF0070007B051
:104F2000BDE8F08F206A08B9276203E03946206A9D
:104F300002F0AEFF384603F00EFA206A0068A0B116
:104F4000206A008940F2FF31884202DA206A008933
:104F500001E040F2FF301FFA80F900234A4637494A
:104F6000206A03F043F8354E03E07E68B7F80A90F4
:104F700000BFB9F1070F4EDB4A4631A1304604F0BD
:104F80006FFD8246BAF1000F45D000200390042245
:104F90002CA13046FBF766F908B9F51C04E00020A7
:104FA00030716FF00D00BAE7681C801BA9EB0000A0
:104FB00080B2029025A1681C029A04F051FD80463F
:104FC000B8F1000F07D11EA1681C029A04F048FD39
:104FD000804601200390681CA8EB000080B201907D
:104FE000B8F1000F16D0A84514D94A4618A130468A
:104FF00004F036FD68B1681C009000202870002283
:10500000DDE9000142542046039A0099FFF792FE21
:1050100085E700BF00BF206A02F06DFF8346206A6B
:105020000089B0F5806F05DABBF1050F02DC6FF087
:10503000040074E76FF00D0071E70000CCC600209B
:105040000D0A000047455420000000002000000029
:105050000D0A0D0A000000002DE9F04105460E463C
:105060002C463CB900213046FFF715FE07460020CC
:10507000BDE8F08114F8280F401C207014F82809AE
:10508000042805D121463046FFF705FE0020EFE752
:105090004CB1606938B12146304600F057F810B184
:1050A000304605F0AFFF0020E2E72DE9F0478046EB
:1050B0000F46154699464646B9F1000F01D105B194
:1050C00076B935B12989384607F0FEF8284602F04E
:1050D000DAFF31463846FFF7DEFD0020BDE8F087F5
:1050E0002989384607F0F0F8706950BB3A463146D6
:1050F0002846FFF7FFFE044600BF3CB1601D05D007
:10510000093003D0801F01D000BF00BF00BF601D69
:1051100006D0306A20B1306A02F0B5FF002030625C
:10512000284602F0B0FF24B93146384600F00EF8A8
:1051300006E014F10E0003D131463846FFF7ABFD0F
:1051400002E0284602F09FFF0020C7E770B5054641
:105150000C4600260CB9002070BD606A30B92146AB
:105160002846FFF77BFD08B90020F5E721462846D1
:1051700000F010F80646606A50B96069FFF790FACF
:10518000002805DC21462846FFF7C2FD0020E3E7A2
:105190003046E1E7F8B506460C4600274FF6FF71AA
:1051A000606A884201D2606A01E04FF6FF7080B207
:1051B0000090A06958B1606948B16069006862698F
:1051C00052681044626A801AA269904201D001209C
:1051D00000E00020C3B26A463046A16900F050F8F2
:1051E000054655B90127BDF80010A0690844A06123
:1051F000BDF80010606A401A60623846F8BD2DE9BB
:10520000F04104460E461746254615B90020BDE874
:10521000F081002085F8280029463046FFF796FFE8
:105220000020F4E710B52C2002F016F8044614B163
:10523000204600F01DF8204610BD10B504466069F8
:1052400020B16069FFF754FA00206061206A20B144
:10525000206A02F018FF0020206210BD10B504463D
:105260002CB12046FFF7E9FF204601F06FFF10BD8B
:1052700010B504462C212046FAF79DFF10BD000012
:105280002DE9F05F06468A4617469B4600BF0FB9D8
:1052900000BF00BF00BF3D8815B90020BDE8F09FEA
:1052A000B6F86640E11704EBD1514912B4EB412145
:1052B00006D02046E11704EBD151491249060C0CE7
:1052C000204601F0C9FF8046B8F1000F02D14FF02F
:1052D000FF30E3E7424621461F48FFF746F985B213
:1052E000C2464FF0010BAC4200DA2546B07F10F009
:1052F000080F02D0F08E0C3800E0F08E4004040C51
:10530000A54200DD254600BF5B462A465146304691
:1053100007F0D4FB814619F101000CD1B6F8660004
:1053200018B1B6F868000C2801DB012503E0284617
:1053300005EBD5714D1019F1010001D1012DE3DC10
:10534000404601F003FFB9F1000F01D13D8001E0BB
:10535000002038804846A1E7B4CD002010B50248AF
:1053600000F004F810BD00001CDB000870B5064614
:1053700005F000FE044600BF0CB900BF00BF00BF2F
:105380000121204607F01FF950220E49204604F063
:1053900079FC054600BF0DB100BF00BF00BFFF2173
:1053A000204605F079FD044600BF0CB900BF00BFE0
:1053B00000BF2146204604F063FC0349204604F068
:1053C000CCFB70BD1CDB0008D14B000870B5054656
:1053D0000C4622460321284600F012F970BD000059
:1053E0002DE9FE4F044689468248B0F86200401C11
:1053F00081B28048A0F862106668307800074FEAF2
:105400009068C8F10001204602F0B1FE10B9208971
:10541000042800D2D4E0606890F800A0BAF1000F30
:1054200003D0BAF1080F6AD100E0C4E00127724846
:10543000006800F0F000E02800D100276E490868FD
:10544000494600F08FFE00B1002767B96948B0F8FF
:105450007400401C81B26748A0F87410204602F026
:1054600012FEBDE8FE8F2089082800D2A8E0204661
:1054700000F09CF958B1204602F005FE5D48B0F8F6
:105480006800401C81B25B48A0F86810E9E722215F
:10549000204602F06CFE88B34146204602F067FECB
:1054A00020B100BF00BF00BF00BF95E021890022EE
:1054B000022002F0B0FB074607B98DE000BF7989F2
:1054C00008F10800814201D200BF00BF00BF2146A1
:1054D000384602F019FD20B100BF00BF00BF00BF79
:1054E0007AE07E68C8F1000001B2384602F03FFE63
:1054F00030B100BF00BF00BF00BF6DE005E04AE073
:10550000204602F0C0FD3C460AE06FF02101204633
:1055100002F02DFE20B100BF00BF00BF00BF5BE066
:10552000656835480068F0603448006830610020E4
:10553000287068884FF6F771884203D3688809306D
:10554000688002E0688808306880FF2030720020A0
:1055500070811421304600F01FF970812548B0F8A1
:105560006000401C2349A1F860004146204602F03B
:10557000FEFD18B100BF00BF00BF0BE001220021FB
:10558000FF238DE806020A461B49204601F050F829
:10559000074600BF0FE01748B0F87000401C81B20A
:1055A0001448A0F87010B0F86600401C81B2114891
:1055B000A0F8661000BF00BF204602F064FD50E76F
:1055C000204602F060FD0B48B0F86A00401C81B232
:1055D0000848A0F86A1044E7204602F054FD054848
:1055E000B0F87400401C81B20248A0F8741000BFEB
:1055F00037E70000009B0020840600208006002082
:105600002DE9FE4306460F46904600222421012044
:1056100002F001FB05460DB9BDE8FE8300BF6889B5
:10562000242801D200BF00BF00BFD6F804906C68E8
:10563000277084F801800020A080E08071686A688B
:1056400002F108001C22FAF79DFD002060806989A4
:10565000204600F0A1F860800C48B0F86000401CC3
:105660000A49A1F86000D9F80C0002900123002239
:10567000CDE90023FF2302AA0021284600F0ACFF59
:10568000284602F000FD00BFC6E70000009B002096
:1056900070B505460C4622460B212846FFF7B0FFA1
:1056A00070BD38B504460D46204600F02DF8204662
:1056B00003F094F8002802DA4FF0FF3038BD20469E
:1056C00003F005FA002802DA6FF00100F6E76946F8
:1056D000204603F035FA0098400A20600098C00583
:1056E000C00D02D02068401E20600020E6E770B5A3
:1056F00004460D4616464FF40073324629462046AE
:1057000003F0C6FA70BD000070B50546FCF784FCD6
:1057100010210748FCF715F9002405E0FF21284671
:1057200002F012F8601CC4B2152CF7DB70BD00004B
:105730000008014070B506460D4610210F48FCF7E1
:10574000FEF800BF02210E48FCF7B2FC0028F9D099
:1057500029460B48FCF7B8FC00BF01210848FCF7BC
:10576000A7FC0028F9D00648FCF7ABFCC4B2102116
:105770000248FCF7E6F8204670BD00000008014032
:105780000030014070B504460D46164632462946A3
:10579000204603F0D1FA70BD70B504460D46294687
:1057A000204601F052FCC04380B270BD2DE9F041AB
:1057B000064600240027354617E06989686801F02D
:1057C00044FC0444A0B200EB1444688900EBD0719F
:1057D0004910B0EB410107D0C7F10100C7B2E0B2F8
:1057E000C4F3072141EA00242D68002DE5D127B13B
:1057F000E0B2C4F3072141EA0024E04380B2BDE8EF
:10580000F0812DE9FF5F0746884691469A460024BD
:10581000A3463D4618E06989686801F016FC044417
:10582000A0B200EB1444688900EBD0714910B0EBD2
:10583000410108D0CBF1010000F0FF0BE0B2C4F34E
:10584000072141EA00242D68002DE4D1BBF1000FAF
:1058500004D0E0B2C4F3072141EA0024D8F8006084
:10586000B0B204444FF6FF7000EA16400444D9F881
:105870000060B0B204444FF6FF7000EA16400444E2
:10588000504601F0D0FB04440E9801F0CCFB0444D8
:10589000A0B200EB1444A0B200EB1444E04380B289
:1058A00004B0BDE8F09F02898A4202DC052202733F
:1058B000704700F11D02525C02B9F9E700F11D02C8
:1058C000525C521ED3B200F11D02535400BFEFE7E9
:1058D0002DE9F04106460F4615463946304600F0A0
:1058E000DCF800B20446401C0DD0A1B2304600F0F6
:1058F000C8F980464FF400722946404601F019FC71
:105900000020BDE8F081304600F079F800B204468E
:10591000401C15D0A2B23946304600F032FB10B11F
:105920004FF0FF30EDE7A1B2304600F0AAF9804613
:105930004FF400722946404601F0FBFB0020E0E7EF
:105940002A463946304600F042FB10B14FF0FF3096
:10595000D7E70020D5E72DE9F04105460E4617466A
:105960003146284600F099F800B20446401C13D096
:10597000A1B2284600F085F980464FF400724146F6
:10598000384601F0D6FB01230222A1B2284600F0DE
:10599000B2FB0020BDE8F081284600F030F800B2EC
:1059A0000446401C20D0A1B2284600F06AF9804687
:1059B0004FF400724146384601F0BBFBA1B22846C5
:1059C00000F086FB05F1180040F824600123022254
:1059D000A1B2284600F08FFB01230022A1B2284685
:1059E00000F089FB0020D5E73A463146284600F012
:1059F000A1FB10B14FF0FF30CCE70020CAE730B573
:105A00000546002409E000222146284600F00EF950
:105A100008B9204630BD601C84B22889A042F2DC5F
:105A20004FF0FF30F6E72DE9F0410446FF274FF035
:105A3000FF3800252BE004F11F00405D618988429A
:105A400023DA002602222946204600F0EFF810B1A2
:105A500006F17F00C6B204F11F00405D4D214843AE
:105A6000618990FBF1F006442946204600F015F9C3
:105A700000EB001000EB4000FF2190FBF1F0304400
:105A8000C6B2BE4201DA3746A846681C85B22089F4
:105A9000A842D0DC4046BDE8F08170B505460E4610
:105AA00000240FE000222146284600F0BFF838B15C
:105AB00005F1180050F82400B04201D1204670BD15
:105AC000601C84B22889A042ECDC4FF0FF30F6E77E
:105AD0002DE9F04106464FF0FF380025FF2700244E
